:020000040800F2
:1000000088120020BD050008A1050008A30500080E
:10001000A7050008AB050008AF05000800000000B8
:10002000000000000000000000000000B305000810
:10003000B505000800000000B7050008B905000874
:10004000D7050008D7050008D7050008D705000820
:10005000D7050008D7050008D7050008D705000810
:10006000D7050008D7050008D7050008D705000800
:10007000D7050008D7050008D7050008D7050008F0
:10008000D7050008D7050008D7050008D7050008E0
:10009000D7050008D7050008D7050008D7050008D0
:1000A000D7050008D7050008D7050008D7050008C0
:1000B000D7050008D7050008B75E0008D705000877
:1000C000D7050008D7050008D7050008D7050008A0
:1000D000D7050008C322000823250008CB23000809
:1000E000D7050008D7050008D7050008D705000880
:1000F000D7050008D7050008D7050008D705000870
:10010000D7050008D7050008D7050008D70500085F
:10011000D7050008D7050008D7050008D70500084F
:10012000D7050008D7050008D7050008D70500083F
:10013000D7050008D7050008D7050008D70500082F
:10014000D7050008D7050008D7050008D70500081F
:10015000D7050008D7050008D7050008D70500080F
:10016000D7050008D7050008D7050008D7050008FF
:10017000D7050008D7050008D7050008D7050008EF
:10018000D7050008D705000800F002F800F03CF899
:100190000AA090E8000C82448344AAF10107DA45E2
:1001A00001D100F031F8AFF2090EBAE80F0013F0F8
:1001B000010F18BFFB1A43F001031847B4AE00004B
:1001C000D4AE0000103A24BF78C878C1FAD85207DC
:1001D00024BF30C830C144BF04680C6070470000C1
:1001E0000023002400250026103A28BF78C1FBD840
:1001F000520728BF30C148BF0B6070471FB509F0D8
:100200008FFA1FBD10B510BD07F06EFD1146FFF748
:10021000F5FF00F011F907F08CFD03B4FFF7F2FFD2
:1002200003BC01F0D1FF00000CB50020019000904C
:100230007648006840F480307449086000BF734815
:10024000006800F4003000900198401C0190009874
:1002500018B90198B0F5A04FF1D16C48006800F4CE
:10026000003010B10120009001E0002000900098C3
:10027000012846D165484030006840F0805063490D
:10028000403108606248006840F4404060490860BE
:100290005E48083000685D4908310860084600681B
:1002A00040F4004008600846006840F4A050086030
:1002B0005848091F0860081F006840F08070091F37
:1002C000086000BF5148006800F000700028F9D0B5
:1002D00040F20570504908604C480830006820F032
:1002E00003004A49083108600846006840F00200EF
:1002F000086000BF45480830006800F00C0008287E
:10030000F8D10CBD10B54548006840F47000434971
:1003100008603E48006840F001003C490860002049
:100320003A4908310860394800683D490840374972
:1003300008603C48091D0860081F006820F4802000
:10034000091F0860002031490C310860FFF76CFF7D
:100350004FF0006031498039086010BD70B5002051
:100360000022022300240221284D08352D6805F0C3
:100370000C0020B1042806D0082834D107E02A4D0B
:100380002A4E356033E02A4D284E35602FE01F4D50
:100390002D1D2D68C5F380541C4D2D1D2D6805F0B5
:1003A0003F0154B1224DB5FBF1F5184E361D3668AC
:1003B000C6F3881605FB06F209E01B4DB5FBF1F507
:1003C000124E361D3668C6F3881605FB06F20F4D31
:1003D0002D1D2D68C5F301456D1C6B00B2FBF3F5B7
:1003E000124E356003E0104D104E356000BF00BF67
:1003F000064D08352D68C5F303150E4E705D0B4D87
:100400002D68C540094E356070BD000000380240BF
:100410000070004019544007003C024088ED00E0A5
:10042000FFFFF6FE103000240024F400000000203E
:1004300040787D010400002002F04CF998E002F0C1
:1004400087F906F03BFA4B48006801287DD100206F
:100450004849086006F0A2FC0821474800F026FA47
:1004600030B94648006818B901204449086011E0D5
:100470004248006801280DD108213F4800F016FAD3
:10048000012807D100203D4908603D48006E401C0E
:100490003B4908660221384800F008FA30B939486B
:1004A000006818B901203749086011E03548006834
:1004B00001280DD10221304800F0F8F9012807D1B8
:1004C0000020304908602E48406E401C2C49486688
:1004D0002021294800F0EAF930B92B48006818B902
:1004E00001202949086011E02748006801280DD142
:1004F0002021214800F0DAF9012807D10020224903
:1005000008601F48806E401C1D4988664FF40051EA
:100510001E4800F0CBF930B91D48006818B9012019
:100520001B49086011E01A48006801280DD14103F9
:10053000164800F0BBF9012807D1002014490860D3
:100540000F48806F401C0E49886712484068B0F51C
:10055000C87F0DDB0F488068401C0E4988600E483C
:100560000068C0430D49C1F8BC0200200949486039
:1005700065E7000014000020001002401800002071
:10058000A40600201C0000202000002000080240DB
:100590002400002098060020BC0243420000434291
:1005A000704700BFFEE700BFFEE700BFFEE700BFE9
:1005B000FEE7704770477047704700000948804762
:1005C00009480047FEE7FEE7FEE7FEE7FEE7FEE735
:1005D000FEE7FEE7FEE7FEE704480549054A064B4D
:1005E000704700000503000889010008880C0020FE
:1005F00088120020880E0020880E00203249014316
:10060000324A1160704770B5002100230F22C47870
:100610001CB32E4C246804F4E064C4F5E064C4F315
:100620000721C1F10404E3B20A4144789C40E1B2DD
:100630008478144021430C07210E254C0578615520
:10064000047804F01F050124AC4005786D11AD005D
:1006500005F1E025C5F8004109E0047804F01F0524
:100660000124AC401B4D0678761145F8264070BD3C
:10067000194A0A400243154B1B1F1A60704739B1D3
:10068000124A121D12680243104B1B1D1A6006E02D
:100690000E4A121D126882430C4B1B1D1A607047D4
:1006A000042808D14FF0E021096941F004014FF01E
:1006B000E022116107E04FF0E021096921F0040117
:1006C0004FF0E022116170470000FA050CED00E0E8
:1006D00000E400E080E100E080FFFF1F10B5044669
:1006E0009848844208D10121084600F086FB002189
:1006F000012000F082FB76E09348844208D101217A
:10070000022000F07AFB0021022000F076FB6AE074
:100710008E48844208D10121042000F06EFB0021A4
:10072000042000F06AFB5EE08948844208D1012180
:10073000082000F062FB0021082000F05EFB52E080
:100740008448844208D10121102000F056FB00218A
:10075000102000F052FB46E07F48844208D101217E
:10076000202000F04AFB0021202000F046FB3AE068
:100770007A48844208D10121402000F03EFB00214C
:10078000402000F03AFB2EE07548844208D1012158
:10079000802000F032FB0021802000F02EFB22E0C0
:1007A0007048844208D10121801500F026FB002109
:1007B000A01500F022FB16E06B48844208D101210D
:1007C000401500F01AFB0021601500F016FB0AE04E
:1007D0006648844207D10121001500F00EFB00217C
:1007E000201500F00AFB10BDF0B50A4600210023D9
:1007F000002400BF3DE0012505FA01F3156805EA74
:1008000003049C4234D105684F000326BE40B54323
:10081000056015794E00B5400668354305601579C9
:10082000012D02D01579022D16D185684F000326BF
:10083000BE40B543856055794E00B5408668354366
:100840008560456801268E40B543456045689679C8
:100850008E40B6B235434560C5684F000326BE40A2
:10086000B543C560D5794E00B540C6683543C5600F
:10087000491C1029BFD3F0BD4FF6FF710160002164
:10088000017141718171C171704708B54FF48032B7
:100890000092009A0A430092009AC261C161009AD4
:1008A000C261C2690092C269009208BD024600207E
:1008B00013690B400BB1012000E000207047014696
:1008C000086980B270470246002053690B400BB1A3
:1008D000012000E0002070470146486980B270475F
:1008E00001837047418370470AB1018300E041836F
:1008F00070474161704742694A4042617047F0B5B4
:10090000002300244D07ED0E02FA05F3CE1000F18E
:10091000200555F826504E07F70E0F26BE40B5436A
:10092000CF1000F1200646F82750CE1000F1200528
:1009300055F8265045EA0304CE1000F1200545F88D
:100940002640F0BD000002400004024000080240C2
:10095000000C024000100240001402400018024047
:10096000001C0240002002400024024000280240F7
:10097000F948006840F00100F74908600020F64996
:1009800008310860F4480068F4490840F2490860FA
:10099000F348091D0860F348EF4984310860F048C6
:1009A0001038091D0860EC48006820F48020EA49EE
:1009B00008600020E8490C310860E7498C31086084
:1009C00070470021E44A921C11701146087070476C
:1009D00010B501460022002300204A11012A02D14D
:1009E000DD4C236808E0022A03D1DB4C7034236815
:1009F00002E0D94C7434236801F01F0201249440B2
:100A00001C400CB1012000E0002010BD38B50020D2
:100A100000900024002500BF3120FFF7D9FF0546D4
:100A20000098401C00900098B0F5A04F01D0002D18
:100A3000F2D03120FFF7CCFF08B1012400E0002400
:100A4000204638BD01460020C34A106820F0F80057
:100A500040EAC10010607047C34908607047002138
:100A6000BD4A703211701170012802D004280AD1D9
:100A700004E00121B84A7032117005E00521B64A40
:100A80007032117000E000BF00BF7047B7490860C6
:100A9000704770B5049C41EA82150126C6EB5306E7
:100AA00045EA0645054345EA0465AB4E361D35600B
:100AB00070BDAD4908667047820142EA0172A64BDB
:100AC00084331A607047A8498866704710B583015F
:100AD00043EA016343EA02739F4C8834236010BDEC
:100AE000A14908677047A049C864704702460020C2
:100AF000994B0833186820F0EC6042EA0103184370
:100B0000954B08331860704702460020924B08331B
:100B1000186820F0784042EA010318438E4B0833EE
:100B200018607047014600208B4A0832106820F098
:100B3000030008431060704787480830006800F0E1
:100B40000C00704701460020834A0832106820F0EC
:100B5000F000084310607047014600207E4A0832CA
:100B6000106820F4E05008431060704701460020F0
:100B7000794A0832106820F4604040EAC1001060F1
:100B80007047F0B500210022002402250026022330
:100B9000714F08373F6807F00C0121B1042905D0D7
:100BA000082937D105E0724F076036E0714F0760C2
:100BB00033E0694F3F1D3F68C7F38056664F3F1DC6
:100BC0003F6807F03F036EB16A4FB7FBF3F7DFF8FA
:100BD00088C10CF1040CDCF800C0CCF3881C07FBC6
:100BE0000CF40CE0624FB7FBF3F7DFF86CC10CF1CB
:100BF000040CDCF800C0CCF3881C07FB0CF4564F47
:100C00003F1D3F68C7F301477F1C7D00B4FBF5F72C
:100C1000076002E0564F076000BF00BF4E4F083725
:100C20003F6807F0F0010909534F7A5C0768D74025
:100C30004760494F08373F6807F4E051890A4E4F33
:100C40007A5C4768D7408760434F08373F6807F4AE
:100C50006041490B484F7A5C4768D740C760F0BD98
:100C6000002100F44072B2F5407F0AD13A4A0832BE
:100C7000116821F4F811414A02401143364A083202
:100C80001160354A70321268C0F30B031A43324BBD
:100C900070331A60704735494439086070473349EA
:100CA00040390860704736490860704701460020A7
:100CB000294A8C32106820F01F004A1E1043264A31
:100CC0008C321060704701460020234A8C32106835
:100CD00020F4F8504A1E40EA02201F4A8C3210606D
:100CE0007047014600201C4A8C32106820F44010E6
:100CF00008431060704701460020174A8C32106884
:100D000020F4400008431060704701460020124A5A
:100D10008C32106820F44030084310607047194945
:100D20000860704739B10C4A3032126802430A4BEE
:100D300030331A6006E0084A303212688243064BAC
:100D400030331A607047F9B1034A343212680243F3
:100D5000014B34331A601CE000380240FFFFF6EA12
:100D6000103000240030002000004742800E47422F
:100D70000024F40040787D0128000020FFFCFF0FD4
:100D80005C014742E01147428F4A126882438E4B12
:100D90001A60704739B18C4A121D126802438A4B9F
:100DA0001B1D1A6006E0884A121D12688243864B9A
:100DB0001B1D1A60704739B1834A0C321268024316
:100DC000814B0C331A6006E07F4A0C321268824372
:100DD0007D4B0C331A60704739B17B4A1032126870
:100DE0000243794B10331A6006E0774A10321268DA
:100DF0008243754B10331A60704739B1724A243AF6
:100E000012680243704B243B1A6006E06E4A243A93
:100E1000126882436C4B243B1A60704739B16A4AAE
:100E2000203A12680243684B203B1A6006E0664A8B
:100E3000203A12688243644B203B1A60704739B1F4
:100E4000614A1C3A126802435F4B1C3B1A6006E081
:100E50005D4A1C3A126882435B4B1C3B1A60704728
:100E600039B1594A143A12680243574B143B1A607D
:100E700006E0554A143A12688243534B143B1A60F9
:100E8000704739B1504A103A126802434E4B103B3A
:100E90001A6006E04C4A103A126882434A4B103BF3
:100EA0001A60704739B1484A1C3212680243464BF7
:100EB0001C331A6006E0444A1C3212688243424BDB
:100EC0001C331A60704739B13F4A2032126802431E
:100ED0003D4B20331A6006E03B4A203212688243C1
:100EE000394B20331A60704739B1374A24321268BF
:100EF0000243354B24331A6006E0334A2432126829
:100F00008243314B24331A60704739B12E4A2C3258
:100F1000126802432C4B2C331A6006E02A4A2C320A
:100F200012688243284B2C331A60704739B1264A25
:100F3000303212680243244B30331A6006E0224AF2
:100F4000303212688243204B30331A6070470128D8
:100F500008D11D493C31096841F008011A4A3C3268
:100F6000116007E018493C31096821F00801164A70
:100F70003C321160704739B1134A273A1278024364
:100F8000114B273B1A7006E00F4A273A127882432A
:100F90000D4B273B1A7070470B484030006840F0FB
:100FA0008070094940310860704701460020064AB8
:100FB000283A12680A400AB1012000E00020704778
:100FC00001492639087070473438024010B504468C
:100FD000FE48844208D101210846FFF752FF002154
:100FE0000120FFF74EFF9DE0B4F1804F08D10121B1
:100FF0000846FFF735FF00210120FFF731FF91E0A0
:10100000F348844208D101210220FFF729FF002183
:101010000220FFF725FF85E0EE48844208D1012138
:101020000420FFF71DFF00210420FFF719FF79E0DE
:10103000E948844208D101210820FFF711FF00216F
:101040000820FFF70DFF6DE0E448844208D101213C
:101050001020FFF705FF00211020FFF701FF61E0DE
:10106000DF48844208D101212020FFF7F9FE00214A
:101070002020FFF7F5FE55E0DA48844208D101212F
:101080000220FFF7FEFE00210220FFF7FAFE49E0F2
:10109000D548844209D101210804FFF7F2FE00215E
:1010A0004FF48030FFF7EDFE3CE0D048844209D198
:1010B00001214804FFF7E5FE00214FF40030FFF75F
:1010C000E0FE2FE0CA48844209D101218804FFF7DD
:1010D000D8FE00214FF48020FFF7D3FE22E0C54860
:1010E000844208D101214020FFF7BAFE00214020B0
:1010F000FFF7B6FE16E0C048844208D101218020E7
:10110000FFF7AEFE00218020FFF7AAFE0AE0BB48F1
:10111000844207D101218015FFF7A2FE0021A0150E
:10112000FFF79EFE10BD00220288A84B98420ED009
:10113000AC4B98420BD0B0F1804F08D0A44B9842F2
:1011400005D0A44B984202D0A34B984204D14FF64D
:101150008F731A404B881A43A04B984207D0A04B7C
:10116000984204D04FF6FF431A400B891A4302807D
:101170004B68C3620B880385944B984202D0994B0D
:10118000984201D18B7A03860123838270474FF006
:10119000FF314160002101800181418081727047EF
:1011A0000185828270470A46002101884FF68F73BD
:1011B000194011430180704741627047C162704716
:1011C0000146486A70470146088D704721B1028880
:1011D00042F00202028004E002884FF6FD731A40DA
:1011E0000280704721B1028842F00402028004E0CC
:1011F00002884FF6FB731A400280704721B10288C3
:1012000042F08002028004E002884FF67F731A40A9
:101210000280704702884FF6F7731A4002800288F6
:101220000A430280704702884FF6FF431A4002804B
:1012300002880A430280704721B1028842F001020D
:10124000028004E002884FF6FE731A400280704765
:1012500070B5002400220023058C4FF6FE76354041
:101260000584028C8388048B4FF68F752C40B51E45
:101270002C400D882C43751E2A408D892A434D88A9
:101280002A43524DA84202D0564DA84213D14FF6E0
:10129000F7752A40CD892A434FF6FB752A408D8881
:1012A0002A434FF6FF652B404FF6FF552B400D8A22
:1012B0002B434D8A2B43838004838D6845630284CE
:1012C00070BD70B5002400220023058C4FF6EF7628
:1012D00035400584028C8388048B48F6FF752C40CA
:1012E0004FF6FF452C400D884FF6FF7606EA0525A0
:1012F0002C434FF6DF752A408D8906EA05152A43EF
:101300004D8806EA05152A43304DA84202D0354DD6
:10131000A8421DD14FF67F752A40CD894FF6FF7642
:1013200006EA05152A434FF6BF752A408D8806EA5E
:1013300005152A434FF6FF352B404FF2FF752B4022
:101340000D8A06EA85052B434D8A06EA85052B435F
:10135000838004838D688563028470BD70B500242A
:1013600000220023058C4FF6FF6635400584028C71
:101370008388848B4FF68F752C404FF6FC752C407C
:101380000D882C434FF6FF552A408D894FF6FF7686
:1013900006EA05252A434D8806EA05252A430B4D12
:1013A000A84202D00F4DA84238D14FF2FF752A4013
:1013B000CD894FF6FF7606EA05252A434FF6FF351D
:1013C0002A408D8806EA05252A4319E000000140DD
:1013D0000004004000080040000C004000100040E5
:1013E000001400400004014000400140004401405E
:1013F0000048014000180040001C00400020004050
:101400004EF6FF752B404DF6FF752B400D8A06EA10
:1014100005152B434D8A06EA05152B4383808483EB
:101420008D68C563028470BD70B50022002300245E
:10143000058C4EF6FF7635400584038C8488828BBC
:1014400048F6FF752A404FF6FF452A400D884FF6B3
:10145000FF7606EA05252A434DF6FF752B408D8958
:1014600006EA05352B434D8806EA05352B43FE4D2C
:10147000A84202D0FD4DA84208D14BF6FF752C4082
:101480000D8A4FF6FF7606EA85152C438480828309
:101490008D680564038470BD0021018041808180D6
:1014A00081608181C18101824182704770B50346AC
:1014B000002000241846183001258D40ACB21D8C48
:1014C000A5431D8409B108290AD100EB6100056814
:1014D0004FF68F76354005600568154305600FE0CF
:1014E0000D1FC5F34E052844056848F6FF763540C4
:1014F000056005684FF6FF7606EA0226354305606B
:1015000070BD4163704781637047C1637047016478
:1015100070470A460021018B4FF68F731940114323
:10152000018370470A460021018B48F6FF7319407A
:101530004FF6FF7303EA02231943018370470A46FB
:101540000021818B4FF68F731940114381837047BF
:101550000A460021818B48F6FF7319404FF6FF734E
:1015600003EA02231943818370470A460021018B55
:101570004FF6F77319401143018370470A46002163
:10158000018B4FF2FF7319404FF6FF7303EA0223FA
:101590001943018370470A460021818B4FF6F77388
:1015A00019401143818370470A460021818B4FF215
:1015B000FF7319404FF6FF7303EA02231943818337
:1015C00070470A460021018B4FF6FB731940114307
:1015D000018370470A460021018B4FF6FF33194003
:1015E0004FF6FF7303EA02231943018370470A464B
:1015F0000021818B4FF6FB731940114381837047A3
:101600000A460021818B4FF6FF3319404FF6FF73D6
:1016100003EA02231943818370470A460021018BA4
:101620004FF67F7319401143018370470A4600212A
:10163000018BC1F30E014FF6FF7303EA0223194336
:10164000018370470A460021818B4FF67F73194052
:101650001143818370470A460021818BC1F30E013B
:101660004FF6FF7303EA02231943818370470A464A
:101670000021018C4FF6FD7319401143018470471E
:101680000A460021018C4FF6F7731940114301847B
:1016900070470A460021018C4FF6DF7319404FF660
:1016A000FF7303EA02131943018470470A460021BD
:1016B000018C4FF67F7319404FF6FF7303EA021354
:1016C0001943018470470A460021018C4FF6FF53ED
:1016D00019404FF6FF7303EA022319430184704750
:1016E0000A460021018C4FF2FF7319404FF6FF7339
:1016F00003EA02231943018470470A460021018C42
:101700004DF6FF7319404FF6FF7303EA0233194396
:101710000184704730B5002301248C40A3B2048CAF
:101720009C430484048C02FA01F5ADB22C4304847A
:1017300030BD30B5002304248C40A3B2048C9C43FC
:101740000484048C02FA01F5ADB22C43048430BD4C
:10175000828B4FF2FF331A408283828B4FF6FF73E6
:1017600003EA01231A4382837047F0B50C461546FD
:10177000002100220026078C4EF6FF7C07EA0C07AA
:101780000784818B028C4FF6FF7707EA043640F618
:10179000FF4739404FF6FF7707EA052739434FF6F1
:1017A000FF7707EA0337394345F6FF773A4046F4B7
:1017B00080573A4381830284F0BD828B4FF6F373E6
:1017C0001A408283828B0A4382837047F0B50C46AD
:1017D0001546002100220026078C4FF6FF6C07EA11
:1017E0000C070784818B028C4FF6FF7707EA0426EB
:1017F0004FF60C7739404FF6FF7707EA03172F4370
:1018000039434FF2FF573A4046F480773A43818399
:101810000284F0BD028B4FF2FF331A400283028B29
:101820004FF6FF7303EA01231A4302837047F0B5B2
:101830000C461546002100220026078C4FF6EF7C4F
:1018400007EA0C070784018B028C4FF6FF7707EA43
:10185000041640F6FF4739404FF6FF7707EA033793
:1018600039434FF6FF7703E00000014000040140D8
:1018700007EA052739434FF65F773A4046F01007ED
:101880003A4301830284F0BD028B4FF6F3731A4092
:101890000283028B0A4302837047F0B50C4615465B
:1018A00000210022068C4FF6FE773E400684018B15
:1018B000028C4FF60C7631407E1C06EA03162E434E
:1018C00031434FF6F576324044F00106324301834E
:1018D0000284F0BD70B505460C46208850B92389B6
:1018E000A28861882846FFF7D8FFE1882846FFF7DD
:1018F000CBFF25E0208804280AD12389A2886188AB
:101900002846FFF794FFE1882846FFF783FF17E09A
:10191000208808280AD12389A28861882846FFF7F1
:1019200055FFE1882846FFF748FF09E02389A28890
:1019300061882846FFF719FFE1882846FFF708FF6E
:1019400070BD002101804180012181800021C18082
:10195000018170472DE9F04105460C46002601271C
:10196000608808B9022600E00026A088012801D17D
:10197000022700E001272088A0B92389A288618876
:101980002846FFF78AFFE1882846FFF77DFF238975
:101990003A4631462846FFF74AFFE1882846FFF7D6
:1019A00039FF13E02389A28861882846FFF73FFFAB
:1019B000E1882846FFF72EFF23893A46314628461C
:1019C000FFF76BFFE1882846FFF75EFFBDE8F08177
:1019D0000146486B70470146886B70470146C86BEB
:1019E00070470146086C70470A884B881A438B88F9
:1019F0001A43CB881A430B891A434B891A438B89A4
:101A00001A43A0F844207047002101804180818062
:101A1000C180018141818181704731B1B0F844209A
:101A200042F40042A0F8442005E0B0F84420C2F39C
:101A30000E02A0F84420704721B1828842F00402CF
:101A4000828004E082884FF6FB731A4082807047E0
:101A500021B1828842F00102828004E082884FF640
:101A6000FE731A40828070471AB183890B438381C9
:101A700002E083898B4383817047818270470246ED
:101A80000020138A0B400BB1012000E000207047BA
:101A9000CA430282704730B502460020002300246A
:101AA000158A05EA0103958905EA010413B10CB111
:101AB000012000E0002030BDCA430282704741EAA5
:101AC0000203A0F8483070471AB183890B43838121
:101AD00002E083898B438381704721B1828842F081
:101AE0000802828004E082884FF6F7731A408280F1
:101AF000704701894FF6F8721140018170470A461C
:101B0000002101894FF68F731940114301817047FD
:101B100030B504460D4629462046FFF7F0FF2089E0
:101B200040F00700208130BD2DE9F04104460D460C
:101B300016461F46602D06D13B46012231462046FF
:101B4000FFF775FE05E03B46012231462046FFF7D0
:101B5000A4FE29462046FFF7D2FF208940F0070067
:101B60002081BDE8F08130B50C4600210189C9B261
:101B70004FF6FF7505EA03251543254329430181E7
:101B800030BD2DE9F04105460E4617469846002423
:101B900043463A4631462846FFF7E5FF2C894FF683
:101BA000F870044044F007044FF68F70044044F08E
:101BB00070042C81BDE8F081F0B504460D46164650
:101BC0001F463B46324629462046FFF7CCFF208978
:101BD00040F480402081F0BD82884FF68F731A4018
:101BE000828082880A438280704702894FF6F873A8
:101BF0001A40028102890A430281704702894FF626
:101C00007F731A40028102890A4302817047F0B54E
:101C10000C4615461E460021002200230189028B36
:101C2000038C4FF6F877394021434FF6FC473A4092
:101C300040F201173A434FF6DD773B404FF6FF770E
:101C400007EA06172F433B43018102830384F0BD5B
:101C500021B1828842F08002828004E082884FF6BF
:101C60007F731A4082807047A0F8501070470000C0
:101C700010B50446FA48844208D101211020FFF72C
:101C800000F900211020FFF7FCF857E0F5488442E6
:101C900009D101214804FFF7E3F800214FF4003097
:101CA000FFF7DEF84AE0F048844209D101218804B8
:101CB000FFF7D6F800214FF48020FFF7D1F83DE080
:101CC000EA48844209D10121C804FFF7C9F800217C
:101CD0004FF40020FFF7C4F830E0E548844209D112
:101CE00001210805FFF7BCF800214FF48010FFF731
:101CF000B7F823E0DF48844208D101212020FFF714
:101D0000C0F800212020FFF7BCF817E0DA48844231
:101D100009D101218807FFF7A3F800214FF0804087
:101D2000FFF79EF80AE0D548844207D1012140051B
:101D3000FFF796F800216005FFF792F810BD2DE936
:101D4000FF4705460E460024A14600BFA046B089C5
:101D500000B100BF2C8A24F44054F08804432C8244
:101D6000AC8941F20C608443B088318908437189A1
:101D700008430443AC81AC8A24F44074B089044322
:101D8000AC826846FEF7FDFEB548854202D0B948F0
:101D9000854202D1DDF80C9001E0DDF80890A889B9
:101DA00000F4004040B109EBC90000EB09103168B4
:101DB0004900B0FBF1F707E009EBC90000EB09109F
:101DC00031688900B0FBF1F76420B7FBF0F0040143
:101DD0002009642101FB1078A88900F4004040B17B
:101DE000322000EBC800B0FBF1F000F00700044324
:101DF00008E0322000EB08106421B0FBF1F000F0A5
:101E00000F0004432C81BDE8FF874FF41651016099
:101E100000218180C18001810C21418100218181CB
:101E2000704710B502460020108A20F470600B88BD
:101E30004C8823438C882343CC8823431843108247
:101E400010BD0021018041808180C180704721B197
:101E5000828942F40052828104E082894DF6FF7348
:101E60001A4082817047028B02F47F420283028B08
:101E70000A430283704721B1828942F40042828181
:101E800003E08289C2F30E028281704721B1828A07
:101E900042F40062828204E0828A4FF2FF731A40A9
:101EA00082827047C1F308028280704701468888A9
:101EB000C0F308007047028A4FF6F0731A4002829E
:101EC000028A0A430282704721B1828942F00202EB
:101ED000828104E082894FF6FD731A408281704747
:101EE00082894FF2FF731A40828182890A4382817C
:101EF0007047028A4FF6DF731A400282028A0A4351
:101F00000282704721B1028A42F48042028204E0D8
:101F1000028A4BF6FF731A4002827047818941F0B2
:101F200001018181704721B1828A42F008028282D8
:101F300004E0828A4FF6F7731A4082827047028B60
:101F4000D2B20283028B42EA01220283704721B19E
:101F5000828A42F02002828204E0828A4FF6DF7396
:101F60001A408282704721B1828A42F01002828236
:101F700004E0828A4FF6EF731A4082827047828AA9
:101F80004FF6FB731A408282828A0A43828270472C
:101F900021B1828A42F00202828204E0828A4FF6F4
:101FA000FD731A40828270471AB1838A0B43838281
:101FB00002E0838A8B4383827047F0B50346002496
:101FC00000260025002040F66A17B94200D100BF64
:101FD0001846C1F3421401F01F06012707FA06F55F
:101FE000012C01D10C3004E0022C01D1103000E0B2
:101FF00014301AB107682F43076002E00768AF4347
:102000000760F0BD02460020B1F5007F00D100BF9F
:1020100013880B400BB1012000E00020704701F451
:102020000072B2F5007F00D100BFCA430280704742
:1020300070B50246002400230025002040F66A16F1
:10204000B14200D100BFC1F3421501F01F030126C8
:1020500006FA03F3012D13D19689334017E00000EF
:10206000001001400044004000480040004C004087
:10207000005000400014014000780040007C004007
:10208000022D02D1168A334001E0968A33400C12A9
:10209000012606FA04F41688344013B10CB101206D
:1020A00000E0002070BD10B50022002340F66A1445
:1020B000A14200D100BF0A1201249440A3B2DC4324
:1020C000048010BD10B504466FF00400FEF7E8FA76
:1020D000E11704EB5171C1F3C701394A1170104681
:1020E000007800EB4001C1EBC0104FF6FF7101EA30
:1020F000C0003449088010BD0146314A12784A4375
:102100004FF0E0235A6100229A611A46126942F0A8
:1021100001021A6100BF4FF0E022106900F00102D5
:102120001AB100F48032002AF5D04FF0E022126993
:1021300022F001024FF0E0231A6100229A617047F9
:102140000146204A12884A434FF0E0235A61002298
:102150009A611A46126942F001021A6100BF4FF0FB
:10216000E022106900F001021AB100F48032002A66
:10217000F5D04FF0E022126922F001024FF0E02387
:102180001A6100229A61704770B504464FF40770D7
:1021900094FBF0F0C6B24FF4077094FBF0F100FB33
:1021A000114085B205E04FF40770FFF7C9FF701EBC
:1021B000C6B2002EF7D115B12846FFF7C1FF70BD9A
:1021C000380000203A00002000BF704770B5044678
:1021D0000D460A2C16D10D21F648FFF763FE00BF0D
:1021E000F448008800F080000028F9D00A21F14866
:1021F000FFF758FE00BFEF48008800F0800000287D
:10220000F9D00AE0E1B2EB48FFF74CFE00BFE94825
:10221000008800F080000028F9D0204670BD10B57D
:1022200088B0044601210846FEF77CFD01211020FC
:10223000FEF7D2FD07220921DF48FEF760FB0722E7
:102240000A21DD48FEF75BFB4FF4C06006900220D8
:102250008DF81C008DF81D0000208DF81E00012057
:102260008DF81F0006A9D448FEF7BEFA029400209C
:10227000ADF80C00ADF80E00ADF81000ADF814008C
:102280000C20ADF8120002A9CC48FFF758FD01213F
:10229000CA48FFF7DCFD012240F22551C748FFF78D
:1022A0008CFE25208DF8040003208DF805008DF8A4
:1022B000060001208DF8070001A8FEF7A4F908B078
:1022C00010BD70B5002540F22551BC48FFF7B0FEA7
:1022D00000283AD040F22551B848FFF7E4FEB7484D
:1022E000FFF7E4FDB649B74A128841F82200B54825
:1022F000008820B908460068A52800D070BDB14804
:102300000088401CAF490880084600880A281CD174
:1023100000200880AA48406A5A2816D1012406E005
:10232000A74830F82400284485B2601C84B2082CE9
:10233000F6DBE8B2A249096A884206D1A048007FCC
:10234000A14908700220A149086000BFD6E710B576
:1023500086B0044601210820FEF7E4FC0121880430
:10236000FEF729FD072208219948FEF7C8FA07223F
:1023700009219748FEF7C3FA4FF4407004900220F9
:102380008DF814008DF8150000208DF8160001203E
:102390008DF8170004A98E48FEF726FA0094002055
:1023A000ADF80400ADF80600ADF80800ADF80C007B
:1023B0000C20ADF80A0069468648FFF7C0FC0121F1
:1023C0008448FFF744FD06B010BD70471FB50446B2
:1023D00081A103C9CDE9020181A103C9CDE90001B1
:1023E0008148C06901284AD140217A48FFF717FE89
:1023F000AA217848FFF756FD00BF40217548FFF736
:1024000001FE0128F9D107217248FFF74BFD00BFFB
:1024100040217048FFF7F6FD0128F9D102216D48EF
:10242000FFF740FD00BF40216A48FFF7EBFD0128A0
:10243000F9D100216748FFF735FD00BF402165480D
:10244000FFF7E0FD0128F9D102A8015D6148FFF71F
:1024500029FD00BF40215F48FFF7D4FD0128F9D1D5
:102460001DF804105B48FFF71DFD00BF40215948CF
:10247000FFF7C8FD0128F9D100205B49C8611FBDE5
:1024800010B588B0044601210846FEF74BFC012137
:102490004804FEF790FC072202214748FEF72FFA76
:1024A000072203214448FEF72AFA0C200690022056
:1024B0008DF81C008DF81D0000208DF81E000120F5
:1024C0008DF81F0006A93C48FEF78EF90294002003
:1024D000ADF80C00ADF80E00ADF81000ADF814002A
:1024E0000C20ADF8120002A93248FFF728FC0121A8
:1024F0003048FFF7ACFC012240F225512D48FFF790
:102500005CFD26208DF8040003208DF805008DF871
:10251000060001208DF8070001A8FEF774F808B046
:1025200010BD10B540F225512248FFF781FD00286B
:102530001ED02048FFF7BAFCC4B22C48008800F433
:102540000040002878D12948008800F4804080B3FA
:102550000A2C0ED0264800882449088008460088A6
:10256000401C088008460088C0F30D0021490C5427
:1025700062E000201D4908801E4890F825001E4991
:10258000C8811C4890F8260088811A4890F82700D6
:102590000881184890F82800C880164890F829004B
:1025A0004880144890F82A000880002010490880CC
:1025B00042E023E0004400400000024000100140DF
:1025C000080100206C000020FB0000207C0000209F
:1025D000000C024000480040000102030405060709
:1025E000B3B4B5B6B7B8B9BAA406002086000020C7
:1025F0006A000020D0050020140C00200D2C0AD108
:102600002948008840F4804027490880084600880F
:102610002649088010E024480088C0F30D002449B2
:102620000C5421480088401C1F4908800846008837
:10263000C72801DD0020088010BD70B504460D4696
:1026400040212046FFF7EBFC29462046FFF72AFCF5
:1026500000BF40212046FFF7D5FC0028F9D070BD0F
:1026600070B505460C4604E021782846FFF7E5FFE3
:10267000641C20780028F7D170BD70B505460C4663
:1026800016460AE000BF288800F040000028FAD073
:1026900014F8011B2846FFF705FC301EA6F10101C6
:1026A000CEB2EFD170BD0000860000206A0000208D
:1026B000D00500200020FA49886008610A20C8601F
:1026C0000020486188618862C8620863C863086442
:1026D0000865704710B54FF4A060FDF78FFFA82084
:1026E000FFF7F0FC4FF4E130FFF799FD4FF4E130D4
:1026F000FFF7C6FE05F054FA04F01EF901F0C8FC1D
:1027000001F094FD03F0DAFE532140F2E73003F0CC
:10271000A5FB03F019FC41F61F41C72003F067FC3D
:1027200001F0A4FDFFF7C6FF0A22DE49DE48FFF7ED
:10273000A4FF04F02FFAA021DC48FEF7E2FEA0215E
:10274000DA48FEF7E0FEA021D848FEF7DEFE10BD15
:1027500010B504F04DF901F02EFD10BD0021D44A52
:1027600091605160CE4A1163516411665166916661
:102770001167D16651671146886170470021CC4AC4
:1027800091605160C64A1163516411665166916649
:1027900091671167D1665167C64A1160012804D15B
:1027A000BF498969491CBE4A916120B9BC49896900
:1027B000491EBB4A916170470021BD4A916051603A
:1027C000B74A116311665166BA4A1160012804D1F3
:1027D000B349C96E491CB24AD16620B9B049C96E25
:1027E000491EAF4AD16670470021B14A91605160DD
:1027F000AB4A116311665166AE4A1160A849C866BA
:1028000070470021AA4A91605160A54A1163116680
:102810005166A84A1160012804D1A149496F491C99
:102820009F4A516720B99E49496F491E9C4A51678A
:10283000704700219E4A91605160994A1163116668
:1028400051669C4A11609649486770470021984A32
:1028500091605160924A116311665166954A116008
:10286000012804D18E49096F491C8D4A116720B98E
:102870008B49096F491E8A4A1167704700218C4AAB
:1028800091605160864A116311665166894A1160F0
:1028900083490867704710B54FF400418648FEF73A
:1028A00005F808B901F061FD4FF400418248FDF7D9
:1028B000FDFF012803D16E21642001F05EFD7F48F9
:1028C000B0F91000B72802DB012005F016F9082145
:1028D0007B48FDF7EBFF012807D102217848FDF77F
:1028E000E5FF012801D1FFF749FF10BD10B5822196
:1028F0006E48FEF70AFE4FF4C870FFF745FCBE2194
:102900006A48FEF702FE4FF4C870FFF73DFCA021B5
:102910006648FEF7FAFD0120FFF74EFF10BD10B527
:102920005F48C06E0C2810D2DFE800F00610368D2C
:1029300097A7ABD4DAE4ECFA01F017FD5C484068E5
:10294000142802DB0120FFF737FF00E1002005F02B
:10295000D4F85C48007801281DD15A4840780128F5
:1029600019D158488078012815D15648C0780128D7
:1029700011D15448007901280DD1524840790128DD
:1029800009D150488079012805D14E48C0790128E5
:1029900001D1FFF711FFDAE06E21642001F0EDFCB8
:1029A0004648B0F91000B0284CDB4FF400514248C3
:1029B000FDF77CFFF0BB20214148FDF777FFC8BB46
:1029C0003B48806801283DDB3E480078012839D12A
:1029D0003C484078012835D13A488078012831D1E7
:1029E0003848C07801282DD136480079012829D1EE
:1029F00034484079012825D132488079012821D1F5
:102A00003048C07901281DD12F4800782E494978D7
:102A100008442D49897808442B49C97808442A4933
:102A2000097908442849497908442749897908449B
:102A3000254900E006E0C9790844042802DC0120A9
:102A4000FFF7BAFE83E001F090FC19488068022885
:102A500002DB0120FFF7B0FE79E01648006820B9DC
:102A60000A221A491048FFF708FE12480068022897
:102A700002D10120FFF7A0FE69E00120FFF79CFED4
:102A800065E001F072FC0D48B0F9040010490860DF
:102A900007484068142802DB0120FFF78DFE56E04E
:102AA000A40600208C00002000100140000001401E
:102AB000980600207C00002000080240140C002032
:102AC00000100240600B00206A0B002096000020DE
:102AD000A40000209FEDF80AAA2002F0E2F836E0F8
:102AE00001F043FCF5484068142802DB0120FFF7A1
:102AF00063FE2CE001F039FCF148007808B1FFF7E3
:102B0000F5FE24E06421084601F037FCED48B0F9F9
:102B10001000B92802DB0120FFF74EFE17E0FFE7A7
:102B2000002004F0EAFFE748B0F91000B4280DDCFB
:102B30000821E548FDF7BAFE012807D10221E24845
:102B4000FDF7B4FE012801D1FFF718FE00BF00BF5A
:102B500010BD10B5B421DD48FEF7D5FC4FF4C870A8
:102B6000FFF712FBA021D948FEF7CDFC4FF4C87047
:102B7000FFF70AFB8C21D548FEF7C3FC4FF4C87061
:102B8000FFF702FBA021D148FEF7BBFC0120FFF7B5
:102B900013FE10BD10B5CE48C06E0A287ED008DCEA
:102BA0000A2824D2DFE800F01A244AA7BFC9D9E5D1
:102BB000FBF4102873D008DCA0F10B000528F0D23C
:102BC000DFE800F0ECEBEAE9E800112868D0122811
:102BD00067D0132866D0632809D19AE001F0C5FBBD
:102BE000B64840681E2802DB0120FFF7E5FD60E1E2
:102BF000012004F082FFB748007801281DD1B548B4
:102C00004078012819D1B3488078012815D1B148FE
:102C1000C078012811D1AF48007901280DD1AD4805
:102C20004079012809D1AB488079012805D1A9480C
:102C3000C079012801D1FFF7BFFD3AE16E21642080
:102C400001F09BFB9F48B0F91000B02852DB4FF415
:102C50000051A148FDF72AFEF0BB20219A48FDF75C
:102C600025FEC8BB95488068012843DB9948007859
:102C700001283FD19748407801283BD1954880787A
:102C8000012837D19348C078012833D19148007981
:102C900001282FD18F484079012804E08FE0D6E049
:102CA000DFE0E2E0EEE025D18A488079012821D1F9
:102CB0008848C07901281DD188480078874949781B
:102CC00008448649897808448449C9780844834976
:102CD00009790844814900E00CE0497908447F49BA
:102CE000897908447D49C9790844042802DC012017
:102CF000FFF762FDDDE001F038FB71480078032842
:102D000003D10120FFF758FD02E06320FFF76CFDBF
:102D1000CFE001F02AFB69484068142802DB0D204F
:102D2000FFF762FDC5E001F020FB644880680328DE
:102D300002DB0120FFF740FDBBE06948006820B9D5
:102D40000A2268496848FFF798FC6548006802282D
:102D500002D10120FFF730FDABE06E21642001F0CD
:102D60001EFB56484068642802DB0120FFF724FD63
:102D70009FE001F0FAFA5348B0F904005B4908609B
:102D80004E484068142802DB0120FFF715FD90E053
:102D90000BE004E055E045E038E020E012E09FED74
:102DA000460AAF2001F07DFF83E001F0DEFA4348E0
:102DB0004068142802DB0120FFF7FEFC79E0FFF7F2
:102DC000C8FE76E06E21642001F0D7FA3D48B0F9E4
:102DD0001000B92802DB0120FFF7EEFC69E00020BB
:102DE00004F08BFE3748B0F91000B4280DDC082140
:102DF0003548FDF75BFD012807D102213248FDF778
:102E000055FD012801D1FFF7B9FC52E06E21642085
:102E100001F0C5FA29484068642802DB0120FFF769
:102E2000CBFC46E001F0A1FA2648B0F904002F4996
:102E3000086022484068142802DB0120FFF7BCFC30
:102E400037E09FED1D0AAF2001F02BFF31E001F0CC
:102E50008CFA1A484068142802DB0120FFF7ACFC0A
:102E600027E00120FFF7A8FC23E06E21642001F099
:102E700084FA1448B0F91000B92802DB0120FFF7EA
:102E80009BFC16E0002004F038FE0E48B0F910005C
:102E9000B4280DDC08210C48FDF708FD012807D1F6
:102EA00002210948FDF702FD012801D1FFF766FC68
:102EB00000BF00BF10BD00009A99993E98060020FF
:102EC000FB000020140C0020001002400000014014
:102ED000A4060020600B0020000802406A0B0020BE
:102EE0007C0000209600002000100140A40000207B
:102EF00010B5FD48C06E0A287ED008DC0A2824D20E
:102F0000DFE800F01A244AA7BFC9D9E5FBF410286E
:102F100073D008DCA0F10B000528F0D2DFE800F048
:102F2000ECEBEAE9E800112868D0122867D01328F2
:102F300066D0632809D19AE001F017FAEB4840689F
:102F40001E2802DB0120FFF737FC60E1012004F0BE
:102F5000D4FDE748007801281DD1E54840780128D4
:102F600019D1E3488078012815D1E148C0780128BB
:102F700011D1DF48007901280DD1DD4840790128C1
:102F800009D1DB488079012805D1D948C0790128C9
:102F900001D1FFF711FC3AE16E21642001F0EDF957
:102FA000D448B0F91000B02852DB4FF40051D24899
:102FB000FDF77CFC20B12021D048FDF777FCE8BB71
:102FC000CA488068012843DBC948007801283FD1FE
:102FD000C748407801283BD1C5488078012837D1BF
:102FE000C348C078012833D1C148007901282FD1C6
:102FF000BF484079012804E08FE0D6E0DFE0E2E05E
:10300000EEE025D1BA488079012821D1B848C079AD
:1030100001281DD1BA480078B94949780844B8490F
:1030200089780844B649C9780844B54909790844FB
:10303000B34949790844B249897900E008E0084475
:10304000AF49C9790844042802DC0120FFF7B4FB2A
:10305000DDE001F08AF9AB480078042803D10120B3
:10306000FFF7AAFB02E06320FFF7BEFBCFE001F011
:103070007CF99E484068142802DB0D20FFF7B4FB62
:10308000C5E001F072F999488068032802DB01204D
:10309000FFF792FBBBE09C48006820B90A229B49DD
:1030A0009B48FFF7EAFA98480068022802D10120FD
:1030B000FFF782FBABE06E21642001F070F98B48D2
:1030C0004068642802DB0120FFF776FB9FE001F0F7
:1030D0004CF98848B0F904008E490860834840687C
:1030E000142802DB0120FFF767FB90E00BE004E00F
:1030F00055E045E038E020E012E01FED910AAF20F6
:1031000001F0CFFD83E001F030F9784840681428E1
:1031100002DB0120FFF750FB79E0FFF71AFD76E0B4
:103120006E21642001F029F97248B0F91000B92825
:1031300002DB0120FFF740FB69E0002004F0DDFC2A
:103140006C48B0F91000B4280DDC08216B48FDF77D
:10315000ADFB012807D102216848FDF7A7FB012834
:1031600001D1FFF70BFB52E06E21642001F017F94B
:103170005E484068642802DB0120FFF71DFB46E043
:1031800001F0F3F85B48B0F9040062490860574861
:103190004068142802DB0120FFF70EFB37E01FED2B
:1031A000BA0AAF2001F07DFD31E001F0DEF84F48B2
:1031B0004068142802DB0120FFF7FEFA27E0012017
:1031C000FFF7FAFA23E06E21642001F0D6F84948AF
:1031D000B0F91000B92802DB0120FFF7EDFA16E084
:1031E000002004F08AFC4348B0F91000B4280DDC3C
:1031F00008214248FDF75AFB012807D102213F4828
:10320000FDF754FB012801D1FFF7B8FA00BF00BF5A
:1032100010BD10B53448C06E0A287DD008DC0A28DD
:1032200024D2DFE800F01A244ABFD7E1FAF3F2F122
:10323000102872D008DCA0F10B000528F0D2DFE8DE
:1032400000F0EBEAE9E8E700112867D0122866D021
:1032500013287DD0632809D1B2E001F086F8234815
:103260004068282802DB0120FFF7A6FA7AE1012056
:1032700004F043FC1E48007801281DD11C4840780A
:10328000012819D11A488078012815D11848C0782A
:10329000012811D11648007901280DD11448407930
:1032A000012809D112488079012805D11048C07938
:1032B000012801D1FFF780FA54E16E21642001F06A
:1032C0005CF80C48B0F91000B0286ADB4FF40051EC
:1032D0000948FDF7EBFAE0BB20210848FDF7E6FAC4
:1032E000B8BB024880681BE0A406002098060020B6
:1032F000600B0020140C0020000802400010024067
:103300006A0B0020FB0000207C00002096000020BB
:1033100000100140A4000020AAE0F1E0FAE0FDE086
:1033200001283EDBFC48007801283AD1FA48407871
:10333000012836D1F8488078012832D1F648C07883
:1033400001282ED1F448007901282AD1F24801E061
:10335000F1E026E04079012823D1EF488079012867
:103360001FD1ED48C07901281BD1EC480078EB490A
:1033700049780844E94989780844E849C978084403
:10338000E64909790844E54949790844E3498979D6
:103390000844E249C9790844042802DC0120FFF707
:1033A0000BFADFE000F0E1FFDD480078052803D1EB
:1033B0000120FFF701FA02E06320FFF715FAD1E0E0
:1033C00000F0D3FFD7484068142802DB0D20FFF738
:1033D0000BFAC7E000F0C9FFD2488068032802DB7F
:1033E0000120FFF7E9F9BDE0CF48006820B90A22C3
:1033F000CE49CF48FFF741F9CB480068022802D1F7
:103400000120FFF7D9F9ADE028E021E011E004E068
:1034100070E060E053E03BE02DE06E21642000F0BE
:10342000BEFFC0484068642802DB0120FFF7C4F9F2
:1034300098E000F09AFFBF48B0F90400BE49086068
:10344000B8484068142802DB0120FFF7B5F989E08D
:103450009FEDBA0AAF2001F024FC83E000F085FF65
:10346000B0484068142802DB0120FFF7A5F979E095
:10347000FFF76FFB76E06E21642000F07EFFAD4821
:10348000B0F91000B92802DB0120FFF795F969E0D7
:10349000002004F032FBA748B0F91000B4280DDC7E
:1034A0000821A748FDF702FA012807D10221A44804
:1034B000FDF7FCF9012801D1FFF760F952E06E2118
:1034C000642000F06CFF97484068642802DB01200C
:1034D000FFF772F946E000F048FF9648B0F90400A3
:1034E000954908608F484068142802DB0120FFF7E7
:1034F00063F937E09FED910AAF2001F0D2FB31E094
:1035000000F033FF87484068142802DB0120FFF7F2
:1035100053F927E00120FFF74FF923E06E216420E3
:1035200000F02BFF8348B0F91000B92802DB01201E
:10353000FFF742F916E0002004F0DFFA7D48B0F909
:103540001000B4280DDC08217D48FDF7AFF90128F3
:1035500007D102217A48FDF7A9F9012801D1FFF727
:103560000DF900BF00BF10BD10B5B4217548FDF7BF
:10357000CAFF4FF4C870FEF707FEA0217148FDF79F
:10358000C2FF4FF4C870FEF7FFFD8C216D48FDF7B8
:10359000B8FF4FF4C870FEF7F7FDA0216948FDF7AA
:1035A000B0FF1820FFF745F910BD10B56648406F11
:1035B0003D2834D2DFE800F01F34436975848A96D1
:1035C000A0EEFFEBEAE9E8E7E6E5E4E3E2E1E0DFCD
:1035D000DEDDDCDBDAD9D8D7D6D5D4D3D2D1D0CF83
:1035E000CECDCCCBCA3333333333333333333333AE
:1035F00033333333AF00022004F07FFA5248006EB9
:10360000012802DB012004F078FA4348007830B941
:103610004D48006E012802DB0120FFF7F2F82BE392
:1036200096221146002000F0CCFE3B48C07828B915
:1036300039480078012801D1FFF7E3F81CE30120A5
:1036400004F065FA3448007801281DD132484078EA
:10365000012819D130488078012815D12E48C0782A
:10366000012811D12C48007901280DD12A48407930
:10367000012809D128488079012805D12648C07938
:10368000012801D1FFF7BDF8F6E25021084600F00D
:1036900074FE244840683C2802DB0120FFF7B1F8A3
:1036A000EAE200F062FE2348B0F904002249086013
:1036B0001C484068322802DB0120FFF7A2F8DBE259
:1036C0009FED1E0A1E2001F0B0FDD5E2A0210846A4
:1036D00000F053FE13488068032802DB0120FFF747
:1036E00090F8C9E200F041FE0E488068022802DB33
:1036F0000120FFF786F8BFE296221146002000F075
:1037000060FE0548C07810B10348007910B9012067
:10371000FFF777F8B0E261E1600B00206A0B002050
:10372000FB000020980600207C000020960000206E
:1037300000100140140C0020A40000209A99993E2A
:103740000010024000000140A4060020A5E197E11E
:103750008CE185E175E168E17BE26CE261E24AE2DD
:103760003FE238E228E204E2F6E1EFE1DFE1D2E114
:10377000ABE143E135E127E120E110E103E1F2E0D3
:10378000E7E0D8E07DE056E03FE034E02DE01DE0EA
:1037900011E0FFE70E2004F0BAF94FF40051FA48A7
:1037A000FDF784F830B9F9488068022802DB01206F
:1037B000FFF727F860E20E2004F0A9F9F34840680B
:1037C000C82802DB0120FFF71CF855E200F0CDFD10
:1037D000EF48B0F90400EF490860EC48406832282F
:1037E00002DB0120FFF70DF846E29FEDEB0A5520C2
:1037F00001F01BFD40E200F0B8FDE44840681428E9
:1038000002DB0120FEF7FDFF36E2012004F075F92E
:103810004FF40051DC48FDF749F820B12021DF4882
:10382000FDF744F830B9D9488068012802DB01204F
:10383000FEF7E7FF20E2012004F05FF9D8480078A6
:1038400001281DD1D6484078012819D1D448807864
:10385000012815D1D248C078012811D1D04800796B
:1038600001280DD1CE484079012809D1CC48807972
:10387000012805D1CA48C079012801D1FEF7C1FF4E
:10388000FAE16E21642000F078FD0020C54908604F
:10389000BF48B0F91000B0284CDB4FF40051BA48D3
:1038A000FDF704F8F0BB2021BC48FCF7FFFFC8BBC4
:1038B000B648806801283DDBB9480078012839D135
:1038C000B7484078012835D1B5488078012831D1F2
:1038D000B348C07801282DD1B1480079012829D1F9
:1038E000AF484079012825D1AD488079012821D100
:1038F000AB48C07901281DD1AB480078AA49497866
:103900000844A94989780844A749C9780844A649C0
:1039100009790844A44949790844A34989790844A4
:10392000A14900E006E0C9790844042802DC01202E
:10393000FEF767FFA0E100F018FD9C48007806281C
:1039400003D10120FEF75DFF02E02720FEF771FFA3
:1039500092E100F00AFD8D488068032802DB012017
:10396000FEF74FFF88E18F48006820B90A2290498E
:103970009048FEF782FE8B480068022802D10120A1
:10398000FEF73FFF78E16E21642000F008FD7F48DC
:103990004068642802DB0120FEF733FF6CE100F091
:1039A000E4FC7B48B0F904007A4908607748406835
:1039B000322802DB0120FEF724FF5DE11FEDA10AA2
:1039C000AF2001F032FC57E100F0CFFC6F484068B7
:1039D000142802DB0120FEF714FF4DE1FFF7C4FDC0
:1039E0004AE16E21642000F0C8FC6948B0F910007B
:1039F000B92802DB0120FEF704FF3DE1002004F0BE
:103A00007CF86348B0F91000B4280DDC0821634845
:103A1000FCF74CFF012807D102216048FCF746FF64
:103A2000012801D1FEF7EDFE26E16E21642000F0B1
:103A3000B6FC56484068642802DB0120FEF7E1FE30
:103A40001AE100F092FC5248B0F9040051490860B4
:103A50004E484068322802DB0120FEF7D2FE0BE11F
:103A60001FEDCA0AAF2001F0E0FB05E100F07DFC8C
:103A700046484068142802DB0120FEF7C2FEFBE046
:103A80006E21642000F079FC4148B0F91000B9289B
:103A900002DB0120FEF7B5FEEEE0002004F02DF879
:103AA0003B48B0F91000B4280EDC08213B48FCF775
:103AB000FDFE012808D102213848FCF7F7FE012855
:103AC00002D11A20FEF7B5FED6E0012004F015F869
:103AD0003348007801281DD131484078012819D198
:103AE0002F488078012815D12D48C078012811D1A0
:103AF0002B48007901280DD129484079012809D1A6
:103B000027488079012805D12548C079012801D1AD
:103B1000FEF777FEB0E05021084600F02EFC1B486F
:103B20004068642802DB0120FEF76BFEA4E000F091
:103B30001CFC1748B0F90400164908601348406897
:103B40000A2802DB0120FEF75CFE95E09FED120AD9
:103B5000642001F06AFB8FE00E2003F0D8FF4FF4E1
:103B600000510948FCF7A2FE10B90120FEF749FEFA
:103B700082E07821642000F000FC0948007810B948
:103B80000120FEF73EFE77E0000802409806002084
:103B9000140C0020A40000209A99193F0010024044
:103BA000600B00207C0000206A0B0020FB0000203E
:103BB000960000200010014000F0D7FBFE48B0F94D
:103BC0000400FE490860FE4840680A2802DB012024
:103BD000FEF717FE50E09FEDFB0A142001F025FBD5
:103BE0004AE000F0C2FBF64840680A2802DB0120E8
:103BF000FEF707FE40E0002003F089FFF0488068F0
:103C000005280DDB0821F048FCF750FE012807D1FC
:103C10000221ED48FCF74AFE012801D1FEF7F1FD33
:103C20002AE0012003F073FFE848407910B9012031
:103C3000FEF7E7FD20E0012003F069FFE04880681F
:103C4000012805DBE148807910B90120FEF7D9FD94
:103C500012E0B4221146012000F0B3FBD8484068BE
:103C6000142808DBD948C07810B1D848007910B9B9
:103C70000120FEF783FD00BF00BF10BD10B5B421C9
:103C8000D348FDF740FC4FF4C870FEF77DFAA02141
:103C9000CF48FDF738FC4FF4C870FEF775FA8C2159
:103CA000CB48FDF72EFC4FF4C870FEF76DFAA0214B
:103CB000C748FDF726FC0120FEF7C8FD10BD10B572
:103CC000C448006F16281DD2DFE800F00B1D29350F
:103CD000475379B1B5BFC3CFDEE4F6F4F3F2F1F0A8
:103CE000EFEE002003F009FF4FF40051BA48FCF753
:103CF000DDFD20B12021B448FCF7D8FD10B901202A
:103D0000FEF7A4FD81E1022003F0F7FEAA48B0F916
:103D10001000A32802DC0120FEF798FD75E10120C8
:103D200003F0EBFEA448B0F91000A72802DD012043
:103D3000FEF78CFD69E1022003F0DFFE4FF4005135
:103D4000A548FCF7B3FD20B120219F48FCF7AEFD4C
:103D500010B90120FEF77AFD57E1022003F0CDFEF5
:103D60009548B0F91000A32802DC0120FEF76EFD93
:103D70004BE1022003F0C1FE9448007801281DD1D8
:103D800092484078012819D190488078012815D1AF
:103D90008E48C078012811D18C48007901280DD1B6
:103DA0008A484079012809D188488079012805D1BD
:103DB0008648C079012801D1FEF748FD25E16E2132
:103DC000642000F0DAFA0020844908607C488068AA
:103DD00001282BDB7848B0F91000B12826DB4FF41E
:103DE00000517D48FCF762FD00BB20217648FCF7BE
:103DF0005DFDD8B97A48007879494978084478490E
:103E0000897808447649C97808447549097908448D
:103E10007349497908447249897908447049C979D4
:103E20000844042802DC0120FEF710FDEDE001202B
:103E3000FEF70CFDE9E000F098FA614840681428AC
:103E400002DB0920FEF71AFDDFE00120FEF7FEFC91
:103E5000DBE06E21642000F0A2FA59484068322865
:103E600002DB0120FEF7F2FCCFE000F07EFA5248C0
:103E7000B0F904005149086051484068142802DB39
:103E80000120FEF7E3FCC0E09FED560AAA2001F0F6
:103E900073F8BAE000F069FA49484068142802DB78
:103EA0000120FEF7D3FCB0E06EE063E046E039E0CD
:103EB0002CE01BE00DE0FFE700F057FA4A480078DD
:103EC000082802D1FFF7DAFE02E00120FEF7BEFC6F
:103ED0009BE04621084600F050FA3748B0F9100040
:103EE000B62802DB0120FEF7B1FC8EE0092003F0CA
:103EF00004FE33488068012807DB2F48B0F9100022
:103F0000C82802DB0120FEF7A1FC7EE0092003F0B7
:103F1000F4FD2948B0F91000C82802DC0120FEF7A2
:103F200095FC72E0002003F0E8FD2348B0F9100092
:103F3000B62802DD0120FEF789FC66E0092003F0C7
:103F4000DCFD1D48B0F91000B52812DC1A48B0F9A4
:103F50001000AF280DDD08211B48FCF7A7FC012845
:103F600007D102211848FCF7A1FC012801D1FEF776
:103F70006DFC4AE000F0F9F911484068C82802DBFE
:103F80000120FEF763FC40E0002003F0B6FD0F487F
:103F90000078012838D10D484078012834D10B48E9
:103FA0008078012830D10948C07801282CD10748F1
:103FB0000079012828D119E0140C0020A400002069
:103FC00098060020CDCC4C3F00100240600B002032
:103FD00000000140A4060020000802407C000020F0
:103FE0006A0B00209A99993EFB00002026484079F0
:103FF000012809D124488079012805D12248C079B7
:10400000012801D1FEF7BAFB00BF00BF10BD10B5FB
:10401000B4211E48FDF777FA4FF4C870FEF7B4F8E4
:10402000A0211A48FDF76FFA4FF4C870FEF7ACF8FC
:104030008C211648FDF765FA4FF4C870FEF7A4F816
:10404000A0211248FDF75DFA0120FEF797FB10BD95
:1040500010B594210D48FDF754FAAA210B48FDF73D
:1040600052FA4FF4C870FEF78FF810BD10B5A021BA
:104070000648FDF746FAA0210448FDF744FA4FF43C
:10408000C870FEF781F810BD600B002000000140F1
:104090001CB501210846FCF745FE01210420FCF770
:1040A00041FE1220009000208DF8040003208DF8BE
:1040B000050001208DF8070069465748FCF794FB7E
:1040C0000120009000208DF8040003208DF80500E9
:1040D00001208DF8070069465048FCF785FB0A204F
:1040E000009000208DF8040003208DF805000120C9
:1040F0008DF8070069464A48FCF776FB1CBD10B5F1
:10410000044614B101204749087046480078002849
:1041100035D002214048FCF7C9FB70B10821404866
:10412000FCF7C4FB48B102213D48FCF7BFFB20B1BE
:1041300010213948FCF7BAFB08BB0A20FEF724F827
:1041400000203849087002213348FCF7AFFB08B95A
:10415000012010BD08213248FCF7A8FB08B9022055
:10416000F7E702212E48FCF7A1FB08B90320F0E78E
:1041700010212948FCF79AFBD8B90420E9E702216D
:104180002548FCF793FB012813D108212448FCF7AC
:104190008DFB01280DD102212148FCF787FB012866
:1041A00007D110211C48FCF781FB012801D11D49D2
:1041B00008700020CDE710B500240020FFF79FFF16
:1041C0000446012C01D1FEF7D9FA022C0FD1164872
:1041D000006D18B901201449086506E01248006D09
:1041E000012802D100201049086502F000F8032CD4
:1041F0000DD10D48006A401C0B4908620846006A50
:10420000082801D10120086201200749C861042C57
:1042100001D102F053F910BD000002400004024039
:1042200000080240A0000020A40600201CB50121C7
:104230004020FCF777FD4FF40040009001208DF8FE
:10424000040000208DF8060003208DF805000120F1
:104250008DF8070069460448FCF7C6FA4FF40041A0
:104260000148FCF73DFB1CBD001802401CB50121B4
:104270000420FCF757FD01214020FCF753FD4FF4CB
:104280004070009001208DF8040000208DF8060099
:1042900003208DF8050001208DF807006946F848D5
:1042A000FCF7A2FA5020009001208DF804000020B5
:1042B0008DF8060003208DF8050001208DF8070019
:1042C0006946F048FCF790FA1CBD10B5044624B1CD
:1042D000012C0CD0022C1ED113E04FF48071E84861
:1042E000FCF7FEFA4021E748FCF7FCFA13E04FF434
:1042F0008071E348FCF7F6FA4021E248FCF7F0FA57
:1043000009E04FF48071DE48FCF7ECFA4021DD480B
:10431000FCF7E8FA00BF00BF10BD10B5044624B199
:10432000012C0CD0022C1ED113E01021D548FCF733
:10433000D7FA4FF40071D248FCF7D4FA13E01021F9
:10434000D048FCF7CFFA4FF40071CD48FCF7C8FA1B
:1043500009E01021CB48FCF7C5FA4FF40071C848BA
:10436000FCF7C0FA00BF00BF10BD10B50220FFF778
:10437000ACFF0220FFF7D1FF10BD70B504460D461B
:104380000020FFF7A2FF0020FFF7C7FF2146BE482D
:10439000FDF7B7F82946BC48FDF7B5F870BD70B514
:1043A00004460D460120FFF790FF0120FFF7B5FFFF
:1043B0002146B548FDF7A5F82946B348FDF7A3F80F
:1043C00070BD70B504460E461546D4B1012C33D1EC
:1043D0000102AB48FCF786FA4021AA48FCF780FAB4
:1043E0003146A948FDF78FF81021A648FCF778FA66
:1043F0006102A348FCF776FA2946A348FDF781F845
:104400001AE04FF480719E48FCF76AFA40219D48FB
:10441000FCF768FA31469C48FDF775F81021994879
:10442000FCF760FA4FF400719548FCF759FA2946F9
:104430009548FDF766F800BF00BF70BD10B52DEDC3
:10444000028B0446B0EE408A9048006820449049B0
:1044500008608E4890ED000AF8EEC00A00EE104A9F
:10446000B8EEC00A48EE000ABDEEE00A894880EDC9
:10447000000A08460068A0F5B470874908608548BE
:104480000068A0F5B47085490860804800685A301B
:10449000834908607D480068002855DB40F26710BA
:1044A000001B7A49096888424EDB7E48B0F9040057
:1044B0007649096888420DDB7A48B0F904007549ED
:1044C0000968884206DCFA224FF487710020FFF762
:1044D00078FF20E17348B0F904006E49096888420A
:1044E0000DDB7048B0F9041069480068801E8142F5
:1044F00005DCC822DC210020FFF763FF0BE16948DF
:10450000B0F9041062480068001F814216DB65485C
:10451000B0F904105E480068401D81420EDC0020A6
:104520005E4908605C4908605A490860584908605B
:10453000564908600120FEF721F9ECE0C822114637
:104540000020FFF73EFFE6E040F26710001B4F49F6
:1045500009688842BDDC4D480068B0F5B47FB8DA20
:104560004E48006800285EDB4E48B0F90400474919
:10457000096888420CDB4B48B0F90400B0F5B47F01
:1045800006DAFA224FF487710020FFF71AFF4AE09B
:104590004448B0F9040000280CDB4248B0F904009C
:1045A0003E490968884205DCC822DC210020FFF76B
:1045B00008FF38E03B48B0F90400384909688842F0
:1045C0000DDB3848B0F9041033480068801E814282
:1045D00005DCA022B4210020FFF7F3FE23E03148E0
:1045E000B0F904102C480068001F814216DB2D48EA
:1045F000B0F9041028480068401D81420EDC0020FC
:10460000264908602449086022490860204908605A
:104610001E4908600120FEF7B1F804E0C822DC2141
:104620000020FFF7CEFE1D480068002873DC1D48FF
:10463000B0F904001549096888420DDB1948B0F942
:10464000040017490968884206DCFA224FF4877192
:104650000020FFF7B6FE5EE01248B0F904001049F2
:104660000968884220DB0F48B0F90400094909684D
:10467000884219DCC822DC210020FFF7A2FE4AE0B4
:10468000000802400018024000040040A40000207E
:10469000A8000020AC000020B0000020B4000020E2
:1046A000B8000020140C0020FA48B0F90400FA49C0
:1046B000096888420BDBF748B0F90400B0F5B47F15
:1046C00005DA9622AA210020FFF77BFE23E0F148BD
:1046D000B0F90410F1480068001F814216DBED4874
:1046E000B0F90410ED480068401D81420EDC002046
:1046F000EB490860E9490860E7490860E949086052
:10470000E94908600120FEF739F804E0C822DC21FD
:104710000020FFF756FEBDEC028B10BD10B52DED4D
:10472000028B0446B0EE408ADF4800682044DD4931
:104730000860DD4890ED000AF8EEC00A00EE104A6D
:10474000B8EEC00A48EE000ABDEEE00AD24880ED9D
:10475000000A08460068A0F5B470D0490860CE4849
:104760000068A0F5B470CE490860CF4800685A30A0
:10477000CE490860CC480068002855DB40F267103D
:10478000001BC949096888424EDBC248B0F90400E1
:10479000C549096888420DDBBE48B0F90400BE492E
:1047A0000968884206DCFA224FF487710020FFF77F
:1047B00008FE0CE1B748B0F90400B749096888421F
:1047C0000DDBB448B0F90410B6480068801E814281
:1047D00005DCC822DC210020FFF7F3FDF7E0AD483F
:1047E000B0F90410AF480068001F814216DBA948E9
:1047F000B0F90410AB480068401D81420EDC002077
:10480000A7490860A5490860A3490860A549086050
:10481000A54908600120FDF7B1FFD8E0C822114684
:104820000020FFF7CEFDD2E040F26710001B9E494A
:1048300009688842BDDC9C480068B0F5B47FB8DAEE
:104840009748006800285EDB9248B0F9040096495A
:10485000096888420CDB8F48B0F90400B0F5B47FDA
:1048600006DAFA224FF487710020FFF7AAFD4AE02A
:104870008848B0F9040000280CDB8648B0F9040031
:1048800087490968884205DCC822DC210020FFF73F
:1048900098FD38E07F48B0F90400814909688842F2
:1048A0000DDB7C48B0F904107C480068801E814212
:1048B00005DCA022B4210020FFF783FD23E075482A
:1048C000B0F9041075480068001F814216DB71487A
:1048D000B0F9041071480068401D81420EDC0020D0
:1048E0006F4908606D4908606B4908606D49086050
:1048F0006D4908600120FDF741FF04E0C822DC217A
:104900000020FFF75EFD6648006800285FDC614814
:10491000B0F904006449096888420DDB5D48B0F9CC
:10492000040062490968884206DCFA224FF4877164
:104930000020FFF746FD4AE05648B0F904005B4905
:10494000096888420CDB5348B0F9040052490968F1
:10495000884205DCC822DC210020FFF732FD36E06A
:104960004C48B0F904004C49096888420BDB4948BF
:10497000B0F90400B0F5B47F05DA9622AA21002030
:10498000FFF71FFD23E04348B0F9041043480068D7
:10499000001F814216DB3F48B0F904103F48006811
:1049A000401D81420EDC00203D4908603B49086003
:1049B000394908603B4908603B4908600120FDF720
:1049C000DDFE04E0C822DC210020FFF7FAFCBDEC8C
:1049D000028B10BD10B52DED028B0446B0EE408A5F
:1049E0003148006820442F4908602F4890ED000AA4
:1049F000F8EEC00A00EE104AB8EEC00A48EE000A0F
:104A0000BDEEE00A244880ED000A08460068A0F5E3
:104A1000B4702249086020480068A0F5B4702049AD
:104A20000860214800685A30204908601E48006824
:104A3000002862DB40F26710001B1B4909688842AE
:104A40005BDB1448B0F904001749096888420CDBA5
:104A50001048B0F9040010490968884205DCFA22C0
:104A600011460020FFF7ADFC18E10A48B0F9040038
:104A70000949096888421BDB0648B0F90410094857
:104A80000068801E814213DCC82211460020FFF717
:104A900098FC03E1140C0020AC000020B0000020C2
:104AA000B4000020A8000020A4000020B8000020CE
:104AB000FE48B0F90410FE480068001F814216DB72
:104AC000FA48B0F90410FA480068401D81420EDC33
:104AD0000020F8490860F8490860F8490860F4497E
:104AE0000860F74908600120FDF748FED6E0C822BB
:104AF00011460120FFF765FCD0E040F26710001B73
:104B0000EF4909688842AFDCED480068B0F5B47F32
:104B1000AADAE848006800285DDBE448B0F9040040
:104B2000E749096888420BDBE048B0F90400B0F5BA
:104B3000B47F05DAFA2211460020FFF742FC4AE072
:104B4000DA48B0F9040000280CDBD848B0F90400BA
:104B5000D8490968884205DCC82211460020FFF7C1
:104B600030FC38E0D148B0F90400D24909688842E5
:104B70000DDBCE48B0F90410CF480068801E81429A
:104B800005DCA02211460020FFF71BFC23E0C748EC
:104B9000B0F90410C8480068001F814216DBC34802
:104BA000B0F90410C4480068401D81420EDC0020AA
:104BB000C0490860C0490860C0490860BC49086035
:104BC000BF4908600120FDF7D9FD04E0C822114665
:104BD0000120FFF7F6FBB748006800285EDCB34809
:104BE000B0F90400B649096888420CDBAF48B0F957
:104BF0000400B4490968884205DCFA221146002005
:104C0000FFF7DFFB4AE0A948B0F90400AD490968A5
:104C100088420CDBA548B0F90400A849096888421D
:104C200005DCC82211460020FFF7CBFB36E09F4889
:104C3000B0F90400A149096888420BDB9B48B0F930
:104C40000400B0F5B47F05DA962211460020FFF784
:104C5000B8FB23E09548B0F9041097480068001F9E
:104C6000814216DB9148B0F9041093480068401D5A
:104C700081420EDC00208F4908608F4908608F490F
:104C800008608B4908608E4908600120FDF776FDB9
:104C900004E0C82211460120FFF793FBBDEC028B14
:104CA00010BD10B52DED028B0446B0EE408A84484D
:104CB000006820447E490860814890ED000AF8EEC3
:104CC000C00A00EE104AB8EEC00A48EE000ABDEE77
:104CD000E00A7A4880ED000A08460068A0F5B47042
:104CE0007549086075480068A0F5B470714908609E
:104CF000734800685A30734908607148006800289A
:104D000055DB40F26710001B6D49096888424EDB95
:104D10006648B0F904006A49096888420DDB6348B7
:104D2000B0F9040065490968884206DC4FF48772CF
:104D3000FA210020FFF745FB1BE15C48B0F90400B5
:104D40005E49096888420DDB5848B0F9041058489C
:104D50000068801E814205DCDC22C8210020FFF7AC
:104D600030FB06E15148B0F9041051480068001FBB
:104D7000814216DB4D48B0F904104D480068401DD3
:104D800081420EDC00204B4908604B4908604B49CA
:104D90000860474908604A4908600120FDF70CFD9A
:104DA000E7E0C82211460020FFF70BFBE1E040F2EC
:104DB0006710001B424909688842BDDC4048006812
:104DC000B0F5B47FB8DA3B48006800285EDB3748AE
:104DD000B0F904003A49096888420CDB3348B0F95D
:104DE0000400B0F5B47F06DA4FF48772FA21002090
:104DF000FFF7E7FA4AE02D48B0F9040000280CDB81
:104E00002A48B0F904002B490968884205DCDC22F5
:104E1000C8210020FFF7D5FA38E02448B0F9040093
:104E20002449096888420DDB2048B0F90410224863
:104E30000068801E814205DCAA2296210020FFF72F
:104E4000C0FA23E01948B0F904101B480068001F9D
:104E5000814216DB1548B0F9041017480068401D60
:104E600081420EDC00201349086013490860134991
:104E700008600F490860124908600120FDF79CFC9A
:104E800004E0C82211460020FFF79BFA0948006899
:104E900000286EDC0548B0F9040009490968884219
:104EA0001CDB0248B0F9040006490DE0140C002098
:104EB000A8000020B4000020B0000020AC000020BA
:104EC000A4000020B80000200968884206DC4FF4E6
:104ED0008772FA210020FFF774FA4AE0F948B0F926
:104EE0000400F949096888420CDBF648B0F904006F
:104EF000F6490968884205DCDC22C8210020FFF75A
:104F000060FA36E0EF48B0F90400F04909688842D9
:104F10000BDBEC48B0F90400B0F5B47F05DAAA2247
:104F200096210020FFF74DFA23E0E648B0F904107F
:104F3000E7480068001F814216DBE248B0F9041020
:104F4000E3480068401D81420EDC0020E149086012
:104F5000DF490860DD490860DF490860DF49086013
:104F60000120FDF729FC04E0C82211460020FFF7CC
:104F700028FABDEC028B10BD10B52DED028B044656
:104F8000B0EE408AD54800682044D3490860D34831
:104F900090ED000AF8EEC00A00EE104AB8EEC00A22
:104FA00048EE000ABDEEE00AC84880ED000A084657
:104FB0000068A0F5B470C6490860C4480068A0F550
:104FC000B470C4490860C54800685A30BE490860DA
:104FD000C2480068002854DB40F26710001BBF493C
:104FE000096888424DDBB748B0F90400BB4909683D
:104FF00088420CDBB348B0F90400B4490968884220
:1050000005DCFA2211460020FFF7DBF90AE1AD4882
:10501000B0F90400AD49096888420DDBA948B0F930
:105020000410AD480068801E814205DCC82211468C
:105030000020FFF7C6F9F5E0A248B0F90410A64831
:105040000068001F814216DB9E48B0F90410A24898
:105050000068401D81420EDC00209E4908609C498A
:1050600008609A4908609C4908609C4908600120D2
:10507000FDF7ECFBD6E0C82211460020FFF7A1F9AE
:10508000D0E040F26710001B944909688842BDDCFB
:1050900092480068B0F5B47FB8DA8E4800680028FE
:1050A0005DDB8848B0F904008C49096888420BDB55
:1050B0008448B0F90400B0F5B47F05DAFA2211464D
:1050C0000020FFF77EF94AE07E48B0F9040000288E
:1050D0000CDB7C48B0F904007E490968884205DC95
:1050E000C82211460020FFF76CF938E07548B0F986
:1050F00004007849096888420DDB7248B0F9041051
:1051000073480068801E814205DCA0221146002001
:10511000FFF757F923E06B48B0F904106C480068BA
:10512000001F814216DB6748B0F904106848006828
:10513000401D81420EDC0020664908606449086019
:105140006249086064490860644908600120FDF70D
:105150007DFB04E0C82211460020FFF732F95D48CC
:10516000006800285EDC5748B0F904005B49096814
:1051700088420CDB5348B0F904005349096888425F
:1051800005DCFA2211460020FFF71BF94AE04D48E2
:10519000B0F904004C49096888420CDB4948B0F971
:1051A00004004A490968884205DCC82211460020EB
:1051B000FFF707F936E04348B0F9040043490968AE
:1051C00088420BDB3F48B0F90400B0F5B47F05DA44
:1051D000962211460020FFF7F4F823E03948B0F991
:1051E00004103B480068001F814216DB3548B0F9C7
:1051F000041037480068401D81420EDC002035490C
:105200000860334908603149086033490860334910
:1052100008600120FDF71AFB04E0C82211460020B7
:10522000FFF7CFF8BDEC028B10BD10B52DED028B52
:105230000446B0EE408A29480068204426490860A8
:10524000264890ED000AF8EEC00A00EE104AB8EECB
:10525000C00A48EE000ABDEEE00A1C4880ED000AD4
:1052600008460068A0F5B47019490860174800683E
:10527000A0F5B47017490860184800685A30124900
:10528000086016480068002864DB40F26710001BC5
:105290001249096888425DDB0A48B0F904000F49E9
:1052A000096888421CDB0748B0F90400074909680F
:1052B000884215DCFA224FF487710020FFF781F84D
:1052C0001BE10000140C0020B8000020AC000020FE
:1052D000B0000020B4000020A8000020A40000209E
:1052E000FD48B0F90400FD49096888420DDBFA4821
:1052F000B0F90410FA480068801E814205DCC8221B
:10530000DC210020FFF75DF8F7E0F348B0F9041066
:10531000F3480068001F814216DBEF48B0F9041023
:10532000EF480068401D81420EDC0020ED49086016
:10533000ED490860E9490860E9490860EB490860FF
:105340000120FDF75EFAD8E0C82211460020FFF7E1
:1053500038F8D2E040F26710001BE449096888423F
:10536000AEDCE2480068B0F5B47FA9DADD48006839
:1053700000285EDBD848B0F90400DC49096888429F
:105380000CDBD548B0F90400B0F5B47F06DAFA2298
:105390004FF487710020FFF714F84AE0CE48B0F9C7
:1053A000040000280CDBCC48B0F90400CD490968A2
:1053B000884205DCC822DC210020FFF702F838E033
:1053C000C548B0F90400C749096888420DDBC248E6
:1053D000B0F90410C4480068801E814205DCA02298
:1053E000B4210020FEF7EDFF23E0BB48B0F9041024
:1053F000BD480068001F814216DBB748B0F90410B1
:10540000B9480068401D81420EDC0020B5490860A3
:10541000B5490860B1490860B1490860B3490860FE
:105420000120FDF7EEF904E0C822DC210020FEF7A0
:10543000C8FFAC48006800285FDCA748B0F904004A
:10544000AA49096888420DDBA348B0F90400A849BD
:105450000968884206DCFA224FF487710020FEF7C3
:10546000B0FF4AE09C48B0F90400A14909688842AD
:105470000CDB9948B0F9040098490968884205DCBA
:10548000C822DC210020FEF79CFF36E09248B0F9EC
:1054900004009249096888420BDB8F48B0F9040088
:1054A000B0F5B47F05DA9622AA210020FEF789FF25
:1054B00023E08948B0F904108B480068001F81423E
:1054C00016DB8548B0F9041087480068401D81420A
:1054D0000EDC002083490860834908607F4908602A
:1054E0007F490860814908600120FDF78AF904E0DE
:1054F000C822DC210020FEF764FFBDEC028B10BD4A
:1055000010B52DED028B0446B0EE408A7748006856
:10551000001B73490860754890ED000AF8EEC00A58
:1055200000EE104AB8EEC00A48EE400ABDEEE00AAE
:105530006A4880ED000AC4F5B4706C4909680844F3
:10554000694908606948006800F5B47000EE100A07
:10555000F8EEC00A00EE104AB8EEC00A48EE400A63
:10556000BDEEE00A5F4880ED000AC4F5B4705F4903
:10557000096808445E4908605C480168A01C8142D3
:1055800056DB5A480068B0F5B47F51DA5248B0F99A
:1055900004005649096888420EDC4F48B0F90400FF
:1055A0004E490968884207DB4FF496724FF49B71AD
:1055B0000120FEF706FF34E14748B0F904004749EF
:1055C000096888420DDC4448B0F90410444800687A
:1055D000801C814205DB962211460120FEF7F1FE78
:1055E0001FE13D48B0F904103D480068C01C8142ED
:1055F00018DC3948B0F9041039480068401F81426E
:1056000010DB00203A4908603649086036490860D6
:105610003249086032490860344908600120FDF7CA
:10562000ADF8FEE09622A5210020FEF7CAFEF8E0C4
:105630002E4800680028BEDB2C480168601C8142AF
:10564000B9DC00EE104AB8EEC00A68EE000A27483E
:1056500090ED000AB8EEC00AF4EEC00AF1EE10FABE
:105660006EDD1D48B0F9040000280DDB1A48B0F9C2
:1056700004001E490968884206DCFA224FF487714B
:105680000120FEF79EFE5BE01348B0F904001549C7
:10569000096888420BDD1048B0F90400B0F5B47F0A
:1056A00005DCC822DC210120FEF78BFE48E00A4819
:1056B000B0F904100E480068801C81421ADB0648CD
:1056C000B0F9040007490968884213DC78228C216C
:1056D0000120FEF776FE33E0140C0020AC00002021
:1056E000A8000020B4000020B0000020A40000208A
:1056F000B8000020F848B0F90410F8480068C01C51
:10570000814218DCF448B0F90410F4480068401FE6
:10571000814210DB0020F1490860F1490860F1493D
:105720000860F1490860F1490860F149086001200A
:10573000FDF724F804E09622AA210020FEF741FE9E
:1057400000EE104AB8EEC00A68EE000AE84890ED94
:10575000000AB8EEC00AF4EEC00AF1EE10FA60D802
:10576000DD48B0F90400E249096888420DDCDA48F6
:10577000B0F90400DC490968884206DDFA224FF4DA
:1057800087710120FEF71DFE4BE0D348B0F90400FD
:10579000D549096888420ADCCF48B0F904000028DE
:1057A00005DBC822DC210120FEF70BFE39E0CA48E8
:1057B000B0F90400B0F5B47F0DDCC748B0F90410AF
:1057C000C6480068801C814205DB78228C210120BC
:1057D000FEF7F7FD25E0C048B0F90410BF480068A7
:1057E000C01C814218DCBC48B0F90410BB480068FA
:1057F000401F814210DB0020B8490860B8490860AA
:10580000B8490860B8490860B8490860B8490860F4
:105810000120FCF7B3FF04E09622AA210020FEF746
:10582000D0FDBDEC028B10BD10B52DED028B0446F2
:10583000B0EE408AAE480068001BAC490860AC4836
:1058400090ED000AF8EEC00A00EE104AB8EEC00A69
:1058500048EE400ABDEEE00AA34880ED000AC4F518
:10586000B470A349096808449E490860A0480068CC
:1058700000F5B47000EE100AF8EEC00A00EE104A0F
:10588000B8EEC00A48EE400ABDEEE00A944880ED4A
:10589000000AC4F5B4709649096808448F49086045
:1058A00093480168A01C814256DB91480068B0F51E
:1058B000B47F51DA8848B0F904008D4909688842FC
:1058C0000EDC8548B0F9040087490968884207DB87
:1058D0004FF49B724FF496710120FEF772FD29E19F
:1058E0007D48B0F904008049096888420DDC7A4897
:1058F000B0F904107D480068801C814205DBA022BD
:1059000096210120FEF75DFD14E17348B0F9041003
:1059100076480068C01C814218DC6F48B0F904105A
:1059200072480068401F814210DB00206B4908600C
:105930006B4908606B4908606B4908606B490860F7
:105940006B4908600120FCF719FFF3E0A0229621C3
:105950000120FEF736FDEDE0654800680028BEDB5B
:1059600063480168601C8142B9DC00EE104AB8EE61
:10597000C00A68EE000A5E4890ED000AB8EEC00A60
:10598000F4EEC00AF1EE10FA5ADD5348B0F9040003
:1059900000280DDB5048B0F90400554909688842D9
:1059A00006DC4FF48272FA210120FEF70AFD47E07F
:1059B0004948B0F904004A49096888420BDD464865
:1059C000B0F90400B0F5B47F05DCD222C821012073
:1059D000FEF7F7FC34E04048B0F904103F48006897
:1059E000801C81420CDB3C48B0F904003C4909684A
:1059F000884205DC822278210120FEF7E2FC1FE0CC
:105A00003548B0F9041035480068C01C814217DCE5
:105A10003148B0F9041031480068401F81420FDB63
:105A200000202E4908602E4908602E4908602E4942
:105A300008602E4908602E4908600120FCF79EFE90
:105A400000EE104AB8EEC00A68EE000A284890ED51
:105A5000000AB8EEC00AF4EEC00AF1EE10FA69D8F6
:105A60001D48B0F904002249096888420DDC1A4833
:105A7000B0F904001C490968884206DD4FF48272BF
:105A8000FA210120FEF79DFC54E01348B0F9040010
:105A90001549096888420ADC0F48B0F9040000285B
:105AA00005DBD222C8210120FEF78BFC42E00A4828
:105AB000B0F90400B0F5B47F1CDC0748B0F904105D
:105AC00006480068801C814214DB82227821012074
:105AD000FEF777FC2EE00000140C0020B800002038
